:100000000C9462000C948A000C948A000C948A0070
:100010000C948A000C948A000C948A000C948A0038
:100020000C948A000C948A000C948A000C948A0028
:100030000C948A000C948A000C948A000C948A0018
:100040000C94EB040C948A000C94B9040C94930463
:100050000C948A000C948A000C948A000C948A00F8
:100060000C9435050C948A00000000002300260043
:10007000290000000008000201000003040700003E
:1000800000000000000000000000250028002B00F8
:1000900000000000240027002A00040404040404D3
:1000A0000404020202020202030303030303010227
:1000B00004081020408001020408102001020408F6
:1000C0001020540611241FBECFEFD8E0DEBFCDBFF5
:1000D00011E0A0E0B1E0E4ECFFE002C005900D9279
:1000E000A234B107D9F722E0A2E4B1E001C01D9229
:1000F000AE3AB207E1F710E0C2E6D0E004C02197C3
:10010000FE010E94DA07C136D107C9F70E948D06A9
:100110000C94E0070C940000CF93DF9390E0FC0177
:10012000E255FF4F249186569F4FFC01849188230E
:10013000C1F090E0880F991FFC01E057FF4FC59177
:10014000D491FC01EA57FF4FA591B4919FB7F89461
:100150003881822F809583238883EC91E22BEC9366
:100160009FBFDF91CF91089508950895AF92BF92F8
:10017000CF92DF92EF92FF920F931F93CF93DF9373
:100180006C017B018B01040F151FEB015E01AE18A2
:10019000BF08C017D10759F06991D601ED91FC91C4
:1001A0000190F081E02DC6010995892B79F7C501F1
:1001B000DF91CF911F910F91FF90EF90DF90CF9043
:1001C000BF90AF900895FC01538D448D252F30E0F2
:1001D000842F90E0821B930B541710F0CF96089554
:1001E00001970895FC01918D828D981761F0A28D81
:1001F000AE0FBF2FB11D5D968C91928D9F5F9F7347
:10020000928F90E008958FEF9FEF0895FC01918DFC
:10021000828D981731F0828DE80FF11D858D90E069
:1002200008958FEF9FEF0895FC01918D228D892F06
:1002300090E0805C9F4F821B91098F7399270895EE
:1002400085E092E00E94140121E0892B09F420E06E
:10025000822F089580E090E0892B29F00E942001F0
:1002600081110C9400000895FC01A48DA80FB92FF2
:10027000B11DA35ABF4F2C91848D90E001968F73CE
:100280009927848FA689B7892C93A089B1898C91ED
:10029000837080648C93938D848D981306C002883C
:1002A000F389E02D80818F7D80830895EF92FF9206
:1002B0000F931F93CF93DF93EC0181E0888F9B8D89
:1002C0008C8D98131AC0E889F989808185FF15C043
:1002D0009FB7F894EE89FF896083E889F989808166
:1002E0008370806480839FBF81E090E0DF91CF9135
:1002F0001F910F91FF90EF900895F62E0B8D10E057
:100300000F5F1F4F0F731127E02E8C8D8E110CC0C5
:100310000FB607FCFACFE889F989808185FFF5CF10
:10032000CE010E943401F1CFEB8DEC0FFD2FF11DBA
:10033000E35AFF4FF0829FB7F8940B8FEA89FB894D
:1003400080818062CFCFCF93DF93EC01888D8823AB
:10035000B9F0AA89BB89E889F9898C9185FD03C028
:10036000808186FD0DC00FB607FCF7CF8C9185FF0D
:10037000F2CF808185FFEDCFCE010E943401E9CF1D
:10038000DF91CF910895833081F028F4813099F086
:100390008230A9F008958730A9F08830C9F0843000
:1003A000B1F4809180008F7D03C0809180008F77B1
:1003B00080938000089584B58F7784BD089584B5B7
:1003C0008F7DFBCF8091B0008F778093B000089530
:1003D0008091B0008F7DF9CFCF93DF93282F30E04D
:1003E000F901EE58FF4F8491F901E255FF4FD49186
:1003F000F901E656FF4FC491CC23A1F081110E9470
:10040000C301EC2FF0E0EE0FFF1FE859FF4FA5915D
:10041000B491EC91ED2381E090E009F480E0DF916C
:10042000CF91089580E090E0FACF1F93CF93DF93B0
:10043000282F30E0F901EE58FF4F8491F901E25581
:10044000FF4FD491F901E656FF4FC491CC23A9F098
:10045000162F81110E94C301EC2FF0E0EE0FFF1F59
:10046000EA57FF4FA591B4918FB7F894EC91111111
:1004700008C0D095DE23DC938FBFDF91CF911F9111
:100480000895DE2BF8CF3FB7F8948091AB0190919F
:10049000AC01A091AD01B091AE0126B5A89B05C0FD
:1004A0002F3F19F00196A11DB11D3FBFBA2FA92FF3
:1004B000982F8827BC01CD01620F711D811D911DF0
:1004C00042E0660F771F881F991F4A95D1F708955C
:1004D00020918301260F3327331F21323105ECF49D
:1004E0002091DB01FC0190E080E0243069F082E0A3
:1004F0000895A09183012191AC014D595E4FA40F45
:10050000B52FB11D2C930196861798F38091830126
:10051000680F6093830180E0089581E00895109250
:10052000DB0181E08093DA011092B50161E082E1A4
:100530000E94150261E083E10E941502E9EBF0E000
:1005400080818E7F808380818D7F808388E480930B
:10055000B80085E48093BC000895CF93DF9391E0C9
:10056000909362018823B9F0C091B800D091BA008D
:100570008091BC008A7B8093BC0060E082E10E9495
:10058000150260E083E10E9415020E948F02D09361
:10059000BA00C093B800DF91CF910895CF92DF9257
:1005A000EF92FF920F931F93CF93DF93D0910402AA
:1005B00081E0D13208F09CC0C09103020E94430246
:1005C0006B017C018091DB0181116CC082E0809322
:1005D000DB0181E08093DA018FEF8093D9011092E3
:1005E000D801D093D701A3EEB1E0E7EBF1E080E0D2
:1005F000D8138DC01092B6018091B601CC0FC82BD4
:10060000C093B6018091B501813009F084C0109289
:10061000B5010E9443026B017C018091B601809379
:10062000BB008091DD019091DE01A091DF01B091CE
:10063000E001892B8A2B8B2BA1F00E9443020091B1
:10064000DD011091DE012091DF013091E0016C1994
:100650007D098E099F09061717072807390708F42F
:1006600042C08091BC0083FDD8CF85EC8093BC0054
:100670000E9443026B017C018091DB01823009F40E
:100680004CC08091D9018F3F09F469C08091D90194
:10069000803209F466C08091D901803309F463C0C7
:1006A00084E026C08091DD019091DE01A091DF0100
:1006B000B091E001892B8A2B8B2B09F483CF0E9408
:1006C00043020091DD011091DE012091DF013091A4
:1006D000E0016C197D098E099F0906171707280785
:1006E000390708F06FCF8091DC010E94AD0285E0F0
:1006F0001092E201109204021092E101DF91CF9179
:100700001F910F91FF90EF90DF90CF9008959D91F2
:1007100091938F5F6DCF85EEA9CF8091DD01909190
:10072000DE01A091DF01B091E001892B8A2B8B2B98
:1007300009F4A2CF0E9443020091DD011091DE0175
:100740002091DF013091E0016C197D098E099F092C
:10075000061717072807390708F08ECFC4CF80E0A7
:10076000C7CF82E0C5CF83E0C3CF0895E091B40145
:100770008091B301E81730F4F0E0EE5BFE4F80812A
:1007800090E008958FEF9FEF08959091B4018091CC
:10079000B3012FEF3FEF981748F4E92FF0E0EE5B3D
:1007A000FE4F208130E09F5F9093B401C90108950E
:1007B0008091B3019091B401891B990B0895CF9258
:1007C000DF92EF92FF920F931F93CF93DF937C0101
:1007D000CB018A012091E101222389F0EB016B0119
:1007E000C40ED51ECC15DD0569F06991D701ED91D8
:1007F000FC910190F081E02DC7010995F3CF642FA2
:100800000E946802C801DF91CF911F910F91FF9064
:10081000EF90DF90CF900895CF93DF931F92CDB7E5
:10082000DEB769832091E1012223F9F020910402CF
:10083000203258F021E030E0FC013383228390E045
:1008400080E00F90DF91CF9108958091E201E82F31
:10085000F0E0ED51FE4F998190838F5F8093E2012C
:100860008093040281E090E0ECCF61E0CE0101963C
:100870000E946802F7CF682F82EA92E00C940C0481
:1008800090E080E00895CF93DF9344E150E06AE286
:1008900071E085E092E00E94B600EC0142E050E099
:1008A0006FE371E085E092E00E94B6008C0F9D1F1F
:1008B000DF91CF91089585ED8093BC008091DD019B
:1008C0009091DE01A091DF01B091E0010796A11D9A
:1008D000B11D23E0B695A795979587952A95D1F7F1
:1008E0002091BC0024FD03C01092DB0108954091CB
:1008F000DD015091DE016091DF017091E001452B37
:10090000462B472B69F30097A105B10541F02AE278
:100910002A95F1F700C00197A109B109E1CF8091B3
:10092000DC010C94AD021F920F920FB60F921124AE
:100930002F933F934F935F936F937F938F939F93E7
:10094000AF93BF93EF93FF9385E092E00E94340151
:10095000FF91EF91BF91AF919F918F917F916F9197
:100960005F914F913F912F910F900FBE0F901F906D
:1009700018951F920F920FB60F9211242F938F93F9
:100980009F93EF93FF93E0911502F09116028081FF
:10099000E0911B02F0911C0282FD1BC090818091AE
:1009A0001E028F5F8F7320911F02821741F0E0912A
:1009B0001E02F0E0EB5FFD4F958F80931E02FF91CA
:1009C000EF919F918F912F910F900FBE0F901F90DD
:1009D00018958081F4CF1F920F920FB60F921124B9
:1009E0002F933F938F939F93AF93BF938091A701D2
:1009F0009091A801A091A901B091AA013091A601FE
:100A000023E0230F2D3758F50196A11DB11D20932A
:100A1000A6018093A7019093A801A093A901B09388
:100A2000AA018091AB019091AC01A091AD01B09170
:100A3000AE010196A11DB11D8093AB019093AC0155
:100A4000A093AD01B093AE01BF91AF919F918F91F3
:100A50003F912F910F900FBE0F901F90189526E891
:100A6000230F0296A11DB11DD2CF1F920F920FB678
:100A70000F9211242F933F934F935F936F937F9324
:100A80008F939F93AF93BF93EF93FF938091B900A0
:100A9000887F803609F44AC0F0F5883209F4A7C08F
:100AA00018F5803109F49BC0B8F4882309F4F9C023
:100AB000883009F494C0FF91EF91BF91AF919F915D
:100AC0008F917F916F915F914F913F912F910F90F7
:100AD0000FBE0F901F901895883109F488C080329E
:100AE00051F78093D90114C0803409F49DC040F4BB
:100AF0008033B9F38833F9F68093D90185ECB0C01F
:100B0000803509F485C0883509F496C0883499F693
:100B10000E945B04D0CF883909F48CC038F588373F
:100B200029F050F4883611F0803729F683E080935D
:100B3000DB011092A50157C0883809F47BC08039C9
:100B400019F0803809F0B7CF8091A501803208F004
:100B500071C0E091A50181E08E0F8093A501809185
:100B6000BB00F0E0EB57FE4F80833DC0803B39F087
:100B7000E0F4803A09F479C0883A09F09CCF84E027
:100B80008093DB011092840110928301E091B10106
:100B9000F091B20109958091830181110FC081E02C
:100BA000809383011092630109C0803C09F4A6CFB1
:100BB000883C09F4A3CF883B09F07DCFE091840104
:100BC00081E08E0F80938401F0E0ED59FE4F80812B
:100BD0008093BB00909184018091830129C0809112
:100BE000B6018093BB0085EC8093BC0064CF9091EC
:100BF000D8018091D701981758F5E091D80181E08C
:100C00008E0F8093D801F0E0E954FE4F8081E9CF48
:100C1000E091D80181E08E0F8093D8018091BB00D4
:100C2000F0E0E954FE4F80839091D8018091D70184
:100C30009817C8F285E8D8CFE091D80181E08E0FEF
:100C40008093D8018091BB00F0E0E954FE4F80838F
:100C50008091DA0181115CCF81E08093B50184EA53
:100C60008093BC001092DB0126CF85EC8093BC0002
:100C70001092DB018091A501803230F4E091A50152
:100C8000F0E0EB57FE4F10826091A50170E0E0911B
:100C9000AF01F091B00185E891E009951092A501AE
:100CA0000ACF1092D90134CFE5E0F2E0138212822C
:100CB00088EE93E0A0E0B0E084839583A683B783B9
:100CC0002AE031E03183208325EC30E0358724872A
:100CD00024EC30E03787268720EC30E0318B208B06
:100CE00021EC30E0338B228B22EC30E0358B248BEF
:100CF00026EC30E0378B268B118E128E138E148EDD
:100D0000E2EAF2E01382128284839583A683B7839A
:100D10008CE191E0918380830895789484B582601A
:100D200084BD84B5816084BD85B5826085BD85B58F
:100D3000816085BD80916E00816080936E0010920D
:100D40008100809181008260809381008091810088
:100D50008160809381008091800081608093800019
:100D60008091B10084608093B1008091B000816077
:100D70008093B00080917A00846080937A008091A3
:100D80007A00826080937A0080917A0081608093FB
:100D90007A0080917A00806880937A001092C10076
:100DA0001092B4011092B3011092E2011092040269
:100DB0000E948F0284EB90E09093B2018093B10186
:100DC00085EB90E09093B0018093AF0182E00E94A8
:100DD0008C0083E00E948C0084E00E948C00E091F3
:100DE0001502F091160282E08083E0911102F091E9
:100DF00012021082E0911302F09114028FEC8083B2
:100E000010921D02E0911902F0911A0286E080838F
:100E1000E0911702F0911802808180618083E09157
:100E20001702F0911802808188608083E091170298
:100E3000F0911802808180688083E0911702F09120
:100E4000180280818F7D808300E010E0C1E082E0A5
:100E50000E94EC0120910401309105018217930753
:100E6000C1F082E00E94EC0190930501809304019F
:100E7000C093E101C09303021092E20110920402B8
:100E8000892B09F480C081E090E00E943B040E941D
:100E9000CE0283E00E94EC01209102013091030117
:100EA00082179307D9F083E00E94EC01909303012D
:100EB00080930201C093E101892B09F467C082E0AD
:100EC000809303021092E2011092040281E090E00C
:100ED0000E943B040E94CE020E94430484E00E94D0
:100EE000EC01209100013091010182179307D9F0A4
:100EF00084E00E94EC019093010180930001C09373
:100F0000E101892B09F44CC083E080930302109225
:100F1000E2011092040281E090E00E943B040E94F2
:100F2000CE020E9443040E9443024B015C0184E60E
:100F3000C82ED12CE12CF12C0E94430268197909AA
:100F40008A099B09683E734081059105A8F321E059
:100F5000C21AD108E108F10888EE880E83E0981ED5
:100F6000A11CB11CC114D104E104F10429F701153D
:100F7000110509F46CCF0E942001882309F467CF82
:100F80000E94000064CF90E080E07FCF82E08093F9
:100F900003021092E2011092040290E080E098CFE8
:100FA00083E0809303021092E2011092040290E029
:100FB00080E0B3CFEE0FFF1F0590F491E02D099470
:040FC000F894FFCFD3
:100FC400010001000100000000005601B600E3002A
:100FD400A3011401F2000601000000000C04DF0369
:100FE4004004B503D803C503B60364657669636535
:100FF4005F325F7061636B65745F73656E64000D6F
:021004000A00E0
:00000001FF
