:100000000C9458000C9480000C9480000C94800098
:100010000C9480000C9480000C9480000C94800060
:100020000C9480000C9480000C9480000C94800050
:100030000C9480000C9480000C9480000C94800040
:100040000C94EF030C9480000C94BD030C94970364
:100050000C9480000C9480000C9480000C94800020
:100060000C9439040C948000000000002500280046
:100070002B00040404040404040402020202020229
:10008000030303030303010204081020408001025C
:1000900004081020010204081020000000080002DB
:1000A00001000003040700000000000000005805E4
:1000B00011241FBECFEFD8E0DEBFCDBF11E0A0E01E
:1000C000B1E0E8EBFCE002C005900D92A234B1076C
:1000D000D9F722E0A2E4B1E001C01D92A039B20735
:1000E000E1F710E0C8E5D0E004C02197FE010E94CE
:1000F0005406C735D107C9F70E9491050C945A06DA
:100100000C9400000895CF93DF93AC01E091E501DA
:10011000F091E6013097F1F09091E4018091E301D4
:100120009817C0F090E0292F30E02617370754F4D5
:10013000D901AC5BBE4F240F351FE90128812C93F8
:100140009F5FF1CF1092E4016093E301CB01DF9157
:10015000CF910994DF91CF910895AF92BF92CF9242
:10016000DF92EF92FF920F931F93CF93DF936C0177
:100170007B018B01040F151FEB015E01AE18BF0858
:10018000C017D10759F06991D601ED91FC9101900A
:10019000F081E02DC6010995892B79F7C501DF9122
:1001A000CF911F910F91FF90EF90DF90CF90BF9074
:1001B000AF900895FC01538D448D252F30E0842F9E
:1001C00090E0821B930B541710F0CF96089501977F
:1001D0000895FC01918D828D981761F0A28DAE0F6C
:1001E000BF2FB11D5D968C91928D9F5F9F73928FF3
:1001F00090E008958FEF9FEF0895FC01918D828D1F
:10020000981731F0828DE80FF11D858D90E00895EB
:100210008FEF9FEF0895FC01918D228D892F90E043
:10022000805C9F4F821B91098F739927089587EEF9
:1002300091E00E940B0121E0892B09F420E0822F3C
:10024000089580E090E0892B29F00E941701811128
:100250000C9400000895FC01A48DA80FB92FB11DC6
:10026000A35ABF4F2C91848D90E001968F739927EC
:10027000848FA689B7892C93A089B1898C918370CA
:1002800080648C93938D848D981306C00288F389C3
:10029000E02D80818F7D80830895EF92FF920F93F0
:1002A0001F93CF93DF93EC0181E0888F9B8D8C8D22
:1002B00098131AC0E889F989808185FF15C09FB716
:1002C000F894EE89FF896083E889F98980818370D9
:1002D000806480839FBF81E090E0DF91CF911F9188
:1002E0000F91FF90EF900895F62E0B8D10E00F5FA9
:1002F0001F4F0F731127E02E8C8D8E110CC00FB67F
:1003000007FCFACFE889F989808185FFF5CFCE0116
:100310000E942B01F1CFEB8DEC0FFD2FF11DE35A65
:10032000FF4FF0829FB7F8940B8FEA89FB89808199
:100330008062CFCFCF93DF93EC01888D8823B9F013
:10034000AA89BB89E889F9898C9185FD03C08081E0
:1003500086FD0DC00FB607FCF7CF8C9185FFF2CF5D
:10036000808185FFEDCFCE010E942B01E9CFDF9187
:10037000CF91089590E0FC01E656FF4F2491FC01D7
:10038000EA57FF4F3491FC01EE58FF4FE491EE2302
:10039000C9F0222339F0233001F1A8F4213019F1FA
:1003A000223029F1F0E0EE0FFF1FE859FF4FA59131
:1003B000B4918FB7F894EC91611126C030953E232B
:1003C0003C938FBF08952730A9F02830C9F024301E
:1003D00049F7809180008F7D03C0809180008F77E6
:1003E00080938000DFCF84B58F7784BDDBCF84B569
:1003F0008F7DFBCF8091B0008F778093B000D2CFFC
:100400008091B0008F7DF9CF3E2BDACF20918A0109
:10041000260F3327331F21323105ECF42091AE0132
:10042000FC0190E080E0243069F082E00895A09122
:100430008A012191AC0146595E4FA40FB52FB11D21
:100440002C930196861798F380918A01680F609328
:100450008A0180E0089581E008951092AE0181E064
:100460008093B0011092AF0161E082E10E94BA0175
:1004700061E083E10E94BA01E9EBF0E080818E7FC8
:10048000808380818D7F808388E48093B80085E4B9
:100490008093BC0008950895E091E4018091E30108
:1004A000E81730F4F0E0EC5BFE4F808190E00895B7
:1004B0008FEF9FEF08959091E4018091E3012FEF7A
:1004C0003FEF981748F4E92FF0E0EC5BFE4F2081F6
:1004D00030E09F5F9093E401C90108958091E301AA
:1004E0009091E401891B990B0895CF93DF93CB0181
:1004F000EA01642F0E940602CE01DF91CF91089598
:10050000CF93DF931F92CDB7DEB7698361E0CE0151
:1005100001960E94060281E090E00F90DF91CF915A
:10052000089590E080E00895FC0101900020E9F733
:100530003197AF01481B590BBC0187EE91E00C9439
:10054000AD008F929F92AF92BF92CF92DF92EF92C7
:10055000FF920F931F93CF93DF93CDB7DEB7A19791
:100560000FB6F894DEBF0FBECDBF6C01990FEE0839
:10057000FF08F7FE47C06DE287EE91E00E944D0153
:100580008C0122273327A9012C193D094E095F0947
:1005900019A2CE0181967C019AE0892E912CA12C82
:1005A000B12CCA01B901A50194010E943206605D17
:1005B000F70162937F01211531054105510589F746
:1005C00090E080E0309719F0CF010E949402080F6C
:1005D000191F84E291E00E949402800F911FA1965E
:1005E0000FB6F894DEBF0FBECDBFDF91CF911F9144
:1005F0000F91FF90EF90DF90CF90BF90AF909F90C2
:100600008F900895A701960119A28E010F5D1F4FCB
:100610008AE0C82ED12CE12CF12CCA01B901A70126
:1006200096010E943206605DF80162938F012115E8
:1006300031054105510589F7309729F0CF010E9416
:1006400094028C01C6CF10E000E0C3CF84E892E0B2
:100650000E945B02909343018093420187E291E004
:100660000E94940281E090E00E94A10282E391E066
:100670000E94940280914201909143010C94A10246
:10068000CF93DF9385ED8093BC00809166019091BC
:100690006701A0916801B09169010796A11DB11D84
:1006A00023E0B695A795979587952A95D1F7209140
:1006B000BC0024FD03C01092AE0136C0409166011B
:1006C000509167016091680170916901452B462B3B
:1006D000472B69F30097A105B10541F02AE22A955D
:1006E000F1F700C00197A109B109E1CF809165013F
:1006F00091E0909364018823B9F0C091B800D09143
:10070000BA008091BC008A7B8093BC0060E082E1EB
:100710000E94BA0160E083E10E94BA010E942D02AA
:10072000D093BA00C093B800DF91CF9108951F9283
:100730000F920FB60F9211242F933F934F935F9315
:100740006F937F938F939F93AF93BF93EF93FF9399
:1007500087EE91E00E942B01FF91EF91BF91AF9145
:100760009F918F917F916F915F914F913F912F91C9
:100770000F900FBE0F901F9018951F920F920FB6FB
:100780000F9211242F938F939F93EF93FF93E091F8
:10079000F701F091F8018081E091FD01F091FE01F7
:1007A00082FD1BC09081809100028F5F8F7320912A
:1007B0000102821741F0E0910002F0E0E951FE4FA2
:1007C000958F80930002FF91EF919F918F912F91D0
:1007D0000F900FBE0F901F9018958081F4CF1F923D
:1007E0000F920FB60F9211242F933F938F939F93E5
:1007F000AF93BF938091D9019091DA01A091DB0171
:10080000B091DC013091D80123E0230F2D3758F54A
:100810000196A11DB11D2093D8018093D901909319
:10082000DA01A093DB01B093DC018091D4019091B7
:10083000D501A091D601B091D7010196A11DB11D9E
:100840008093D4019093D501A093D601B093D701A2
:10085000BF91AF919F918F913F912F910F900FBEBC
:100860000F901F90189526E8230F0296A11DB11D29
:10087000D2CF1F920F920FB60F9211242F933F9356
:100880004F935F936F937F938F939F93AF93BF9398
:10089000EF93FF938091B900887F803609F44AC0B6
:1008A000F0F5883209F4A7C018F5803109F49BC02F
:1008B000B8F4882309F4F9C0883009F494C0FF9192
:1008C000EF91BF91AF919F918F917F916F915F91C8
:1008D0004F913F912F910F900FBE0F901F90189541
:1008E000883109F488C0803251F78093AD0114C07B
:1008F000803409F49DC040F48033B9F38833F9F6AD
:100900008093AD0185ECB0C0803509F485C0883591
:1009100009F496C0883499F60E944003D0CF8839F4
:1009200009F48CC038F5883729F050F4883611F076
:10093000803729F683E08093AE011092AC0157C056
:10094000883809F47BC0803919F0803809F0B7CFB6
:100950008091AC01803208F071C0E091AC0181E07F
:100960008E0F8093AC018091BB00F0E0E457FE4F06
:1009700080833DC0803B39F0E0F4803A09F479C0CF
:10098000883A09F09CCF84E08093AE0110928B01ED
:1009900010928A01E091DF01F091E00109958091C8
:1009A0008A0181110FC081E080938A0110926A014F
:1009B00009C0803C09F4A6CF883C09F4A3CF883B4A
:1009C00009F07DCFE0918B0181E08E0F80938B0148
:1009D000F0E0E659FE4F80818093BB0090918B013F
:1009E00080918A0129C08091D3018093BB0085EC5E
:1009F0008093BC0064CF9091D2018091D10198176F
:100A000058F5E091D20181E08E0F8093D201F0E0A1
:100A1000EF54FE4F8081E9CFE091D20181E08E0F4B
:100A20008093D2018091BB00F0E0EF54FE4F8083B1
:100A30009091D2018091D1019817C8F285E8D8CF62
:100A4000E091D20181E08E0F8093D2018091BB00B2
:100A5000F0E0EF54FE4F80838091B00181115CCFB4
:100A600081E08093AF0184EA8093BC001092AE01D4
:100A700026CF85EC8093BC001092AE018091AC0132
:100A8000803230F4E091AC01F0E0E457FE4F108288
:100A90006091AC0170E0E091DD01F091DE018CE845
:100AA00091E009951092AC010ACF1092AD0134CFBC
:100AB000E7EEF1E01382128288EE93E0A0E0B0E06E
:100AC00084839583A683B78324E031E03183208338
:100AD00025EC30E03587248724EC30E03787268703
:100AE00020EC30E0318B208B21EC30E0338B228BFB
:100AF00022EC30E0358B248B26EC30E0378B268BD4
:100B0000118E128E138E148EE4E8F2E0138212829C
:100B100084839583A683B78386E191E09183808364
:100B20000895789484B5826084BD84B5816084BD65
:100B300085B5826085BD85B5816085BD80916E007B
:100B4000816080936E0010928100809181008260AC
:100B500080938100809181008160809381008091E9
:100B600080008160809380008091B10084608093D8
:100B7000B1008091B00081608093B00080917A00D4
:100B8000846080937A0080917A00826080937A00FA
:100B900080917A00816080937A0080917A008068E9
:100BA00080937A001092C1001092E4011092E30148
:100BB0001092E2011092E1010E942D0282E890E081
:100BC0009093E0018093DF0183E890E09093DE0151
:100BD0008093DD0182E08093BA0026E233E0309317
:100BE000E6012093E501E091F701F091F80180839F
:100BF000E091F301F091F4011082E091F501F091A0
:100C0000F6018FEC80831092FF01E091FB01F091DF
:100C1000FC0186E08083E091F901F091FA01808186
:100C200080618083E091F901F091FA018081886010
:100C30008083E091F901F091FA01808180688083DE
:100C4000E091F901F091FA0180818F7D8083C0E00D
:100C5000D0E02097F1F30E9417018823D1F30E947E
:100C60000000F7CFA1E21A2EAA1BBB1BFD010DC08D
:100C7000AA1FBB1FEE1FFF1FA217B307E407F5074C
:100C800020F0A21BB30BE40BF50B661F771F881F28
:100C9000991F1A9469F760957095809590959B01BE
:100CA000AC01BD01CF010895EE0FFF1F0590F49137
:080CB000E02D0994F894FFCF38
:100CB800000000004D01AD00DA009A010B01E900C7
:100CC800FD00000000008002750291024B026E02D6
:100CD8005B024C020D0A004465766963655F49440E
:100CE8003A004465766963655F7374617475733A35
:020CF8000000FA
:00000001FF
